{
  "contractName": "Renter",
  "abi": [
    {
      "inputs": [
        {
          "internalType": "address",
          "name": "_carManagerAddress",
          "type": "address"
        },
        {
          "internalType": "address",
          "name": "_userManagerAddress",
          "type": "address"
        }
      ],
      "stateMutability": "nonpayable",
      "type": "constructor"
    },
    {
      "inputs": [],
      "name": "getOwner",
      "outputs": [
        {
          "internalType": "address",
          "name": "",
          "type": "address"
        }
      ],
      "stateMutability": "view",
      "type": "function"
    },
    {
      "inputs": [
        {
          "internalType": "address",
          "name": "newOwner",
          "type": "address"
        }
      ],
      "name": "setOwner",
      "outputs": [],
      "stateMutability": "nonpayable",
      "type": "function"
    },
    {
      "inputs": [],
      "name": "getCarManagerAddress",
      "outputs": [
        {
          "internalType": "address",
          "name": "",
          "type": "address"
        }
      ],
      "stateMutability": "view",
      "type": "function"
    },
    {
      "inputs": [
        {
          "internalType": "address",
          "name": "_carManagerAddress",
          "type": "address"
        }
      ],
      "name": "setCarManagerAddress",
      "outputs": [],
      "stateMutability": "nonpayable",
      "type": "function"
    },
    {
      "inputs": [],
      "name": "getUserManagerAddress",
      "outputs": [
        {
          "internalType": "address",
          "name": "",
          "type": "address"
        }
      ],
      "stateMutability": "view",
      "type": "function"
    },
    {
      "inputs": [
        {
          "internalType": "address",
          "name": "_userManagerAddress",
          "type": "address"
        }
      ],
      "name": "setUserManagerAddress",
      "outputs": [],
      "stateMutability": "nonpayable",
      "type": "function"
    },
    {
      "inputs": [
        {
          "internalType": "address payable",
          "name": "walletAddress",
          "type": "address"
        }
      ],
      "name": "Login",
      "outputs": [
        {
          "components": [
            {
              "internalType": "address payable",
              "name": "walletaddress",
              "type": "address"
            },
            {
              "internalType": "string",
              "name": "name",
              "type": "string"
            },
            {
              "internalType": "string",
              "name": "lastname",
              "type": "string"
            },
            {
              "internalType": "uint256",
              "name": "rentedCarId",
              "type": "uint256"
            },
            {
              "internalType": "uint256",
              "name": "balance",
              "type": "uint256"
            },
            {
              "internalType": "uint256",
              "name": "debt",
              "type": "uint256"
            },
            {
              "internalType": "uint256",
              "name": "start",
              "type": "uint256"
            },
            {
              "internalType": "uint256",
              "name": "end",
              "type": "uint256"
            }
          ],
          "internalType": "struct User",
          "name": "",
          "type": "tuple"
        }
      ],
      "stateMutability": "view",
      "type": "function"
    },
    {
      "inputs": [
        {
          "internalType": "address payable",
          "name": "walletAddress",
          "type": "address"
        },
        {
          "internalType": "string",
          "name": "name",
          "type": "string"
        },
        {
          "internalType": "string",
          "name": "lastname",
          "type": "string"
        }
      ],
      "name": "Register",
      "outputs": [
        {
          "components": [
            {
              "internalType": "address payable",
              "name": "walletaddress",
              "type": "address"
            },
            {
              "internalType": "string",
              "name": "name",
              "type": "string"
            },
            {
              "internalType": "string",
              "name": "lastname",
              "type": "string"
            },
            {
              "internalType": "uint256",
              "name": "rentedCarId",
              "type": "uint256"
            },
            {
              "internalType": "uint256",
              "name": "balance",
              "type": "uint256"
            },
            {
              "internalType": "uint256",
              "name": "debt",
              "type": "uint256"
            },
            {
              "internalType": "uint256",
              "name": "start",
              "type": "uint256"
            },
            {
              "internalType": "uint256",
              "name": "end",
              "type": "uint256"
            }
          ],
          "internalType": "struct User",
          "name": "",
          "type": "tuple"
        }
      ],
      "stateMutability": "nonpayable",
      "type": "function"
    },
    {
      "inputs": [
        {
          "internalType": "address payable",
          "name": "walletAddress",
          "type": "address"
        },
        {
          "internalType": "uint256",
          "name": "id",
          "type": "uint256"
        }
      ],
      "name": "checkOut",
      "outputs": [],
      "stateMutability": "nonpayable",
      "type": "function"
    },
    {
      "inputs": [
        {
          "internalType": "address payable",
          "name": "walletAddress",
          "type": "address"
        }
      ],
      "name": "checkIn",
      "outputs": [],
      "stateMutability": "nonpayable",
      "type": "function"
    },
    {
      "inputs": [
        {
          "internalType": "address payable",
          "name": "walletAddress",
          "type": "address"
        }
      ],
      "name": "deposit",
      "outputs": [],
      "stateMutability": "payable",
      "type": "function"
    },
    {
      "inputs": [
        {
          "internalType": "address payable",
          "name": "_userAddress",
          "type": "address"
        }
      ],
      "name": "getUserBalance",
      "outputs": [
        {
          "internalType": "uint256",
          "name": "",
          "type": "uint256"
        }
      ],
      "stateMutability": "view",
      "type": "function"
    },
    {
      "inputs": [
        {
          "internalType": "address payable",
          "name": "walletAddress",
          "type": "address"
        }
      ],
      "name": "makePayment",
      "outputs": [],
      "stateMutability": "nonpayable",
      "type": "function"
    },
    {
      "inputs": [],
      "name": "getAllCars",
      "outputs": [
        {
          "internalType": "uint256[]",
          "name": "",
          "type": "uint256[]"
        }
      ],
      "stateMutability": "view",
      "type": "function"
    },
    {
      "inputs": [
        {
          "internalType": "uint256",
          "name": "id",
          "type": "uint256"
        }
      ],
      "name": "getCar",
      "outputs": [
        {
          "components": [
            {
              "internalType": "uint256",
              "name": "id",
              "type": "uint256"
            },
            {
              "internalType": "string",
              "name": "name",
              "type": "string"
            },
            {
              "internalType": "string",
              "name": "imgUrl",
              "type": "string"
            },
            {
              "internalType": "bool",
              "name": "avaliableforRent",
              "type": "bool"
            },
            {
              "internalType": "uint256",
              "name": "rentFee",
              "type": "uint256"
            },
            {
              "internalType": "uint256",
              "name": "saleFee",
              "type": "uint256"
            }
          ],
          "internalType": "struct Car",
          "name": "",
          "type": "tuple"
        }
      ],
      "stateMutability": "view",
      "type": "function"
    },
    {
      "inputs": [
        {
          "internalType": "address payable",
          "name": "_userWallet",
          "type": "address"
        }
      ],
      "name": "getUserDept",
      "outputs": [
        {
          "internalType": "uint256",
          "name": "",
          "type": "uint256"
        }
      ],
      "stateMutability": "view",
      "type": "function"
    },
    {
      "inputs": [
        {
          "internalType": "uint256",
          "name": "id",
          "type": "uint256"
        },
        {
          "internalType": "string",
          "name": "name",
          "type": "string"
        },
        {
          "internalType": "string",
          "name": "url",
          "type": "string"
        },
        {
          "internalType": "uint256",
          "name": "rent",
          "type": "uint256"
        },
        {
          "internalType": "uint256",
          "name": "sale",
          "type": "uint256"
        }
      ],
      "name": "addCar",
      "outputs": [],
      "stateMutability": "nonpayable",
      "type": "function"
    },
    {
      "inputs": [
        {
          "internalType": "address",
          "name": "_owner",
          "type": "address"
        }
      ],
      "name": "setCarManagerOwner",
      "outputs": [],
      "stateMutability": "nonpayable",
      "type": "function"
    },
    {
      "inputs": [
        {
          "internalType": "uint256",
          "name": "_id",
          "type": "uint256"
        }
      ],
      "name": "activateCar",
      "outputs": [],
      "stateMutability": "nonpayable",
      "type": "function"
    },
    {
      "inputs": [
        {
          "internalType": "uint256",
          "name": "_id",
          "type": "uint256"
        }
      ],
      "name": "deActivateCar",
      "outputs": [],
      "stateMutability": "nonpayable",
      "type": "function"
    },
    {
      "inputs": [
        {
          "internalType": "uint256",
          "name": "_id",
          "type": "uint256"
        }
      ],
      "name": "isCarActive",
      "outputs": [
        {
          "internalType": "bool",
          "name": "",
          "type": "bool"
        }
      ],
      "stateMutability": "view",
      "type": "function"
    }
  ],
  "bytecode": "0x60806040523480156200001157600080fd5b506040516200275e3803806200275e833981810160405281019062000037919062000118565b336000806101000a81548173ffffffffffffffffffffffffffffffffffffffff021916908373ffffffffffffffffffffffffffffffffffffffff16021790555081600160006101000a81548173ffffffffffffffffffffffffffffffffffffffff021916908373ffffffffffffffffffffffffffffffffffffffff16021790555080600260006101000a81548173ffffffffffffffffffffffffffffffffffffffff021916908373ffffffffffffffffffffffffffffffffffffffff1602179055505050620001b2565b600081519050620001128162000198565b92915050565b6000806040838503121562000132576200013162000193565b5b6000620001428582860162000101565b9250506020620001558582860162000101565b9150509250929050565b60006200016c8262000173565b9050919050565b600073ffffffffffffffffffffffffffffffffffffffff82169050919050565b600080fd5b620001a3816200015f565b8114620001af57600080fd5b50565b61259c80620001c26000396000f3fe60806040526004361061012a5760003560e01c8063893d20e8116100ab578063d9a59e331161006f578063d9a59e33146103da578063df4799f314610403578063eecc1c951461042c578063f001c16f14610469578063f20b245a146104a6578063f340fa01146104e35761012a565b8063893d20e81461030957806396eee63e14610334578063abfe5d571461035d578063bcd1cbcc14610388578063c4359683146103b15761012a565b8063419e226a116100f2578063419e226a146101fe57806347734892146102295780635e8be190146102665780637f5e9ed3146102a35780638073dc5e146102cc5761012a565b806313af40351461012f578063218e6c2a146101585780632917630f14610183578063300be4fc146101ac57806339ee066a146101d5575b600080fd5b34801561013b57600080fd5b5061015660048036038101906101519190611a15565b6104ff565b005b34801561016457600080fd5b5061016d610640565b60405161017a9190612050565b60405180910390f35b34801561018f57600080fd5b506101aa60048036038101906101a59190611c9c565b61066a565b005b3480156101b857600080fd5b506101d360048036038101906101ce9190611a42565b610794565b005b3480156101e157600080fd5b506101fc60048036038101906101f79190611c42565b610824565b005b34801561020a57600080fd5b50610213610942565b6040516102209190612050565b60405180910390f35b34801561023557600080fd5b50610250600480360381019061024b9190611a42565b61096c565b60405161025d91906121d5565b60405180910390f35b34801561027257600080fd5b5061028d60048036038101906102889190611c42565b610a20565b60405161029a9190612191565b60405180910390f35b3480156102af57600080fd5b506102ca60048036038101906102c59190611a15565b610adf565b005b3480156102d857600080fd5b506102f360048036038101906102ee9190611a42565b610bfd565b60405161030091906121d5565b60405180910390f35b34801561031557600080fd5b5061031e610cb1565b60405161032b9190612050565b60405180910390f35b34801561034057600080fd5b5061035b60048036038101906103569190611a15565b610cda565b005b34801561036957600080fd5b50610372610dac565b60405161037f91906120f4565b60405180910390f35b34801561039457600080fd5b506103af60048036038101906103aa9190611c42565b610e58565b005b3480156103bd57600080fd5b506103d860048036038101906103d39190611a15565b610f76565b005b3480156103e657600080fd5b5061040160048036038101906103fc9190611a42565b611048565b005b34801561040f57600080fd5b5061042a60048036038101906104259190611afa565b6110d8565b005b34801561043857600080fd5b50610453600480360381019061044e9190611a42565b61116b565b60405161046091906121b3565b60405180910390f35b34801561047557600080fd5b50610490600480360381019061048b9190611c42565b611314565b60405161049d9190612116565b60405180910390f35b3480156104b257600080fd5b506104cd60048036038101906104c89190611a6f565b6113c8565b6040516104da91906121b3565b60405180910390f35b6104fd60048036038101906104f89190611a42565b61151a565b005b60008054906101000a900473ffffffffffffffffffffffffffffffffffffffff1673ffffffffffffffffffffffffffffffffffffffff163373ffffffffffffffffffffffffffffffffffffffff161461058d576040517f08c379a000000000000000000000000000000000000000000000000000000000815260040161058490612171565b60405180910390fd5b600073ffffffffffffffffffffffffffffffffffffffff168173ffffffffffffffffffffffffffffffffffffffff1614156105fd576040517f08c379a00000000000000000000000000000000000000000000000000000000081526004016105f490612151565b60405180910390fd5b806000806101000a81548173ffffffffffffffffffffffffffffffffffffffff021916908373ffffffffffffffffffffffffffffffffffffffff16021790555050565b6000600160009054906101000a900473ffffffffffffffffffffffffffffffffffffffff16905090565b60008054906101000a900473ffffffffffffffffffffffffffffffffffffffff1673ffffffffffffffffffffffffffffffffffffffff163373ffffffffffffffffffffffffffffffffffffffff16146106f8576040517f08c379a00000000000000000000000000000000000000000000000000000000081526004016106ef90612171565b60405180910390fd5b600160009054906101000a900473ffffffffffffffffffffffffffffffffffffffff1673ffffffffffffffffffffffffffffffffffffffff16632917630f86868686866040518663ffffffff1660e01b815260040161075b9594939291906121f0565b600060405180830381600087803b15801561077557600080fd5b505af1158015610789573d6000803e3d6000fd5b505050505050505050565b600260009054906101000a900473ffffffffffffffffffffffffffffffffffffffff1673ffffffffffffffffffffffffffffffffffffffff1663300be4fc826040518263ffffffff1660e01b81526004016107ef919061206b565b600060405180830381600087803b15801561080957600080fd5b505af115801561081d573d6000803e3d6000fd5b5050505050565b60008054906101000a900473ffffffffffffffffffffffffffffffffffffffff1673ffffffffffffffffffffffffffffffffffffffff163373ffffffffffffffffffffffffffffffffffffffff16146108b2576040517f08c379a00000000000000000000000000000000000000000000000000000000081526004016108a990612171565b60405180910390fd5b600160009054906101000a900473ffffffffffffffffffffffffffffffffffffffff1673ffffffffffffffffffffffffffffffffffffffff166339ee066a826040518263ffffffff1660e01b815260040161090d91906121d5565b600060405180830381600087803b15801561092757600080fd5b505af115801561093b573d6000803e3d6000fd5b5050505050565b6000600260009054906101000a900473ffffffffffffffffffffffffffffffffffffffff16905090565b6000600260009054906101000a900473ffffffffffffffffffffffffffffffffffffffff1673ffffffffffffffffffffffffffffffffffffffff166347734892836040518263ffffffff1660e01b81526004016109c9919061206b565b60206040518083038186803b1580156109e157600080fd5b505afa1580156109f5573d6000803e3d6000fd5b505050506040513d601f19601f82011682018060405250810190610a199190611c6f565b9050919050565b610a286115ac565b600260009054906101000a900473ffffffffffffffffffffffffffffffffffffffff1673ffffffffffffffffffffffffffffffffffffffff16635e8be190836040518263ffffffff1660e01b8152600401610a8391906121d5565b60006040518083038186803b158015610a9b57600080fd5b505afa158015610aaf573d6000803e3d6000fd5b505050506040513d6000823e3d601f19601f82011682018060405250810190610ad89190611bb0565b9050919050565b60008054906101000a900473ffffffffffffffffffffffffffffffffffffffff1673ffffffffffffffffffffffffffffffffffffffff163373ffffffffffffffffffffffffffffffffffffffff1614610b6d576040517f08c379a0000000000000000000000000000000000000000000000000000000008152600401610b6490612171565b60405180910390fd5b600160009054906101000a900473ffffffffffffffffffffffffffffffffffffffff1673ffffffffffffffffffffffffffffffffffffffff166313af4035826040518263ffffffff1660e01b8152600401610bc89190612050565b600060405180830381600087803b158015610be257600080fd5b505af1158015610bf6573d6000803e3d6000fd5b5050505050565b6000600260009054906101000a900473ffffffffffffffffffffffffffffffffffffffff1673ffffffffffffffffffffffffffffffffffffffff166386aa2e42836040518263ffffffff1660e01b8152600401610c5a919061206b565b60206040518083038186803b158015610c7257600080fd5b505afa158015610c86573d6000803e3d6000fd5b505050506040513d601f19601f82011682018060405250810190610caa9190611c6f565b9050919050565b60008060009054906101000a900473ffffffffffffffffffffffffffffffffffffffff16905090565b60008054906101000a900473ffffffffffffffffffffffffffffffffffffffff1673ffffffffffffffffffffffffffffffffffffffff163373ffffffffffffffffffffffffffffffffffffffff1614610d68576040517f08c379a0000000000000000000000000000000000000000000000000000000008152600401610d5f90612171565b60405180910390fd5b80600160006101000a81548173ffffffffffffffffffffffffffffffffffffffff021916908373ffffffffffffffffffffffffffffffffffffffff16021790555050565b6060600260009054906101000a900473ffffffffffffffffffffffffffffffffffffffff1673ffffffffffffffffffffffffffffffffffffffff166317c392866040518163ffffffff1660e01b815260040160006040518083038186803b158015610e1657600080fd5b505afa158015610e2a573d6000803e3d6000fd5b505050506040513d6000823e3d601f19601f82011682018060405250810190610e539190611b3a565b905090565b60008054906101000a900473ffffffffffffffffffffffffffffffffffffffff1673ffffffffffffffffffffffffffffffffffffffff163373ffffffffffffffffffffffffffffffffffffffff1614610ee6576040517f08c379a0000000000000000000000000000000000000000000000000000000008152600401610edd90612171565b60405180910390fd5b600160009054906101000a900473ffffffffffffffffffffffffffffffffffffffff1673ffffffffffffffffffffffffffffffffffffffff1663bcd1cbcc826040518263ffffffff1660e01b8152600401610f4191906121d5565b600060405180830381600087803b158015610f5b57600080fd5b505af1158015610f6f573d6000803e3d6000fd5b5050505050565b60008054906101000a900473ffffffffffffffffffffffffffffffffffffffff1673ffffffffffffffffffffffffffffffffffffffff163373ffffffffffffffffffffffffffffffffffffffff1614611004576040517f08c379a0000000000000000000000000000000000000000000000000000000008152600401610ffb90612171565b60405180910390fd5b80600260006101000a81548173ffffffffffffffffffffffffffffffffffffffff021916908373ffffffffffffffffffffffffffffffffffffffff16021790555050565b600260009054906101000a900473ffffffffffffffffffffffffffffffffffffffff1673ffffffffffffffffffffffffffffffffffffffff1663d9a59e33826040518263ffffffff1660e01b81526004016110a3919061206b565b600060405180830381600087803b1580156110bd57600080fd5b505af11580156110d1573d6000803e3d6000fd5b5050505050565b600260009054906101000a900473ffffffffffffffffffffffffffffffffffffffff1673ffffffffffffffffffffffffffffffffffffffff1663df4799f383836040518363ffffffff1660e01b81526004016111359291906120cb565b600060405180830381600087803b15801561114f57600080fd5b505af1158015611163573d6000803e3d6000fd5b505050505050565b6111736115e4565b600260009054906101000a900473ffffffffffffffffffffffffffffffffffffffff1673ffffffffffffffffffffffffffffffffffffffff16634209fff1836040518263ffffffff1660e01b81526004016111ce919061206b565b60206040518083038186803b1580156111e657600080fd5b505afa1580156111fa573d6000803e3d6000fd5b505050506040513d601f19601f8201168201806040525081019061121e9190611b83565b61125d576040517f08c379a000000000000000000000000000000000000000000000000000000000815260040161125490612131565b60405180910390fd5b600260009054906101000a900473ffffffffffffffffffffffffffffffffffffffff1673ffffffffffffffffffffffffffffffffffffffff16636f77926b836040518263ffffffff1660e01b81526004016112b8919061206b565b60006040518083038186803b1580156112d057600080fd5b505afa1580156112e4573d6000803e3d6000fd5b505050506040513d6000823e3d601f19601f8201168201806040525081019061130d9190611bf9565b9050919050565b6000600160009054906101000a900473ffffffffffffffffffffffffffffffffffffffff1673ffffffffffffffffffffffffffffffffffffffff1663f001c16f836040518263ffffffff1660e01b815260040161137191906121d5565b60206040518083038186803b15801561138957600080fd5b505afa15801561139d573d6000803e3d6000fd5b505050506040513d601f19601f820116820180604052508101906113c19190611b83565b9050919050565b6113d06115e4565b600260009054906101000a900473ffffffffffffffffffffffffffffffffffffffff1673ffffffffffffffffffffffffffffffffffffffff1663d7554a688585856040518463ffffffff1660e01b815260040161142f93929190612086565b600060405180830381600087803b15801561144957600080fd5b505af115801561145d573d6000803e3d6000fd5b50505050600260009054906101000a900473ffffffffffffffffffffffffffffffffffffffff1673ffffffffffffffffffffffffffffffffffffffff16636f77926b856040518263ffffffff1660e01b81526004016114bc919061206b565b60006040518083038186803b1580156114d457600080fd5b505afa1580156114e8573d6000803e3d6000fd5b505050506040513d6000823e3d601f19601f820116820180604052508101906115119190611bf9565b90509392505050565b600260009054906101000a900473ffffffffffffffffffffffffffffffffffffffff1673ffffffffffffffffffffffffffffffffffffffff166347e7ef2482346040518363ffffffff1660e01b81526004016115779291906120cb565b600060405180830381600087803b15801561159157600080fd5b505af11580156115a5573d6000803e3d6000fd5b5050505050565b6040518060c0016040528060008152602001606081526020016060815260200160001515815260200160008152602001600081525090565b604051806101000160405280600073ffffffffffffffffffffffffffffffffffffffff168152602001606081526020016060815260200160008152602001600081526020016000815260200160008152602001600081525090565b600061165261164d84612276565b612251565b9050808382526020820190508285602086028201111561167557611674612444565b5b60005b858110156116a5578161168b8882611a00565b845260208401935060208301925050600181019050611678565b5050509392505050565b60006116c26116bd846122a2565b612251565b9050828152602081018484840111156116de576116dd612449565b5b6116e9848285612393565b509392505050565b60006117046116ff846122a2565b612251565b9050828152602081018484840111156117205761171f612449565b5b61172b8482856123a2565b509392505050565b6000813590506117428161250a565b92915050565b60008135905061175781612521565b92915050565b60008151905061176c81612521565b92915050565b600082601f83011261178757611786612435565b5b815161179784826020860161163f565b91505092915050565b6000815190506117af81612538565b92915050565b600082601f8301126117ca576117c9612435565b5b81356117da8482602086016116af565b91505092915050565b600082601f8301126117f8576117f7612435565b5b81516118088482602086016116f1565b91505092915050565b600060c082840312156118275761182661243a565b5b61183160c0612251565b9050600061184184828501611a00565b600083015250602082015167ffffffffffffffff8111156118655761186461243f565b5b611871848285016117e3565b602083015250604082015167ffffffffffffffff8111156118955761189461243f565b5b6118a1848285016117e3565b60408301525060606118b5848285016117a0565b60608301525060806118c984828501611a00565b60808301525060a06118dd84828501611a00565b60a08301525092915050565b60006101008284031215611900576118ff61243a565b5b61190b610100612251565b9050600061191b8482850161175d565b600083015250602082015167ffffffffffffffff81111561193f5761193e61243f565b5b61194b848285016117e3565b602083015250604082015167ffffffffffffffff81111561196f5761196e61243f565b5b61197b848285016117e3565b604083015250606061198f84828501611a00565b60608301525060806119a384828501611a00565b60808301525060a06119b784828501611a00565b60a08301525060c06119cb84828501611a00565b60c08301525060e06119df84828501611a00565b60e08301525092915050565b6000813590506119fa8161254f565b92915050565b600081519050611a0f8161254f565b92915050565b600060208284031215611a2b57611a2a612453565b5b6000611a3984828501611733565b91505092915050565b600060208284031215611a5857611a57612453565b5b6000611a6684828501611748565b91505092915050565b600080600060608486031215611a8857611a87612453565b5b6000611a9686828701611748565b935050602084013567ffffffffffffffff811115611ab757611ab661244e565b5b611ac3868287016117b5565b925050604084013567ffffffffffffffff811115611ae457611ae361244e565b5b611af0868287016117b5565b9150509250925092565b60008060408385031215611b1157611b10612453565b5b6000611b1f85828601611748565b9250506020611b30858286016119eb565b9150509250929050565b600060208284031215611b5057611b4f612453565b5b600082015167ffffffffffffffff811115611b6e57611b6d61244e565b5b611b7a84828501611772565b91505092915050565b600060208284031215611b9957611b98612453565b5b6000611ba7848285016117a0565b91505092915050565b600060208284031215611bc657611bc5612453565b5b600082015167ffffffffffffffff811115611be457611be361244e565b5b611bf084828501611811565b91505092915050565b600060208284031215611c0f57611c0e612453565b5b600082015167ffffffffffffffff811115611c2d57611c2c61244e565b5b611c39848285016118e9565b91505092915050565b600060208284031215611c5857611c57612453565b5b6000611c66848285016119eb565b91505092915050565b600060208284031215611c8557611c84612453565b5b6000611c9384828501611a00565b91505092915050565b600080600080600060a08688031215611cb857611cb7612453565b5b6000611cc6888289016119eb565b955050602086013567ffffffffffffffff811115611ce757611ce661244e565b5b611cf3888289016117b5565b945050604086013567ffffffffffffffff811115611d1457611d1361244e565b5b611d20888289016117b5565b9350506060611d31888289016119eb565b9250506080611d42888289016119eb565b9150509295509295909350565b6000611d5b8383612032565b60208301905092915050565b611d708161234b565b82525050565b611d7f8161234b565b82525050565b611d8e81612339565b82525050565b6000611d9f826122e3565b611da98185612306565b9350611db4836122d3565b8060005b83811015611de5578151611dcc8882611d4f565b9750611dd7836122f9565b925050600181019050611db8565b5085935050505092915050565b611dfb8161235d565b82525050565b611e0a8161235d565b82525050565b6000611e1b826122ee565b611e258185612317565b9350611e358185602086016123a2565b611e3e81612458565b840191505092915050565b6000611e54826122ee565b611e5e8185612328565b9350611e6e8185602086016123a2565b611e7781612458565b840191505092915050565b6000611e8f601883612328565b9150611e9a82612469565b602082019050919050565b6000611eb2602a83612328565b9150611ebd82612492565b604082019050919050565b6000611ed5601383612328565b9150611ee0826124e1565b602082019050919050565b600060c083016000830151611f036000860182612032565b5060208301518482036020860152611f1b8282611e10565b91505060408301518482036040860152611f358282611e10565b9150506060830151611f4a6060860182611df2565b506080830151611f5d6080860182612032565b5060a0830151611f7060a0860182612032565b508091505092915050565b600061010083016000830151611f946000860182611d67565b5060208301518482036020860152611fac8282611e10565b91505060408301518482036040860152611fc68282611e10565b9150506060830151611fdb6060860182612032565b506080830151611fee6080860182612032565b5060a083015161200160a0860182612032565b5060c083015161201460c0860182612032565b5060e083015161202760e0860182612032565b508091505092915050565b61203b81612389565b82525050565b61204a81612389565b82525050565b60006020820190506120656000830184611d85565b92915050565b60006020820190506120806000830184611d76565b92915050565b600060608201905061209b6000830186611d76565b81810360208301526120ad8185611e49565b905081810360408301526120c18184611e49565b9050949350505050565b60006040820190506120e06000830185611d76565b6120ed6020830184612041565b9392505050565b6000602082019050818103600083015261210e8184611d94565b905092915050565b600060208201905061212b6000830184611e01565b92915050565b6000602082019050818103600083015261214a81611e82565b9050919050565b6000602082019050818103600083015261216a81611ea5565b9050919050565b6000602082019050818103600083015261218a81611ec8565b9050919050565b600060208201905081810360008301526121ab8184611eeb565b905092915050565b600060208201905081810360008301526121cd8184611f7b565b905092915050565b60006020820190506121ea6000830184612041565b92915050565b600060a0820190506122056000830188612041565b81810360208301526122178187611e49565b9050818103604083015261222b8186611e49565b905061223a6060830185612041565b6122476080830184612041565b9695505050505050565b600061225b61226c565b905061226782826123d5565b919050565b6000604051905090565b600067ffffffffffffffff82111561229157612290612406565b5b602082029050602081019050919050565b600067ffffffffffffffff8211156122bd576122bc612406565b5b6122c682612458565b9050602081019050919050565b6000819050602082019050919050565b600081519050919050565b600081519050919050565b6000602082019050919050565b600082825260208201905092915050565b600082825260208201905092915050565b600082825260208201905092915050565b600061234482612369565b9050919050565b600061235682612369565b9050919050565b60008115159050919050565b600073ffffffffffffffffffffffffffffffffffffffff82169050919050565b6000819050919050565b82818337600083830152505050565b60005b838110156123c05780820151818401526020810190506123a5565b838111156123cf576000848401525b50505050565b6123de82612458565b810181811067ffffffffffffffff821117156123fd576123fc612406565b5b80604052505050565b7f4e487b7100000000000000000000000000000000000000000000000000000000600052604160045260246000fd5b600080fd5b600080fd5b600080fd5b600080fd5b600080fd5b600080fd5b600080fd5b6000601f19601f8301169050919050565b7f546865207573657220646f6573206e6f74206578697374210000000000000000600082015250565b7f4e6577206f776e657220616464726573732063616e6e6f742062652061207a6560008201527f726f206164647265737300000000000000000000000000000000000000000000602082015250565b7f4f6e6c79206f776e657220726571756972656400000000000000000000000000600082015250565b61251381612339565b811461251e57600080fd5b50565b61252a8161234b565b811461253557600080fd5b50565b6125418161235d565b811461254c57600080fd5b50565b61255881612389565b811461256357600080fd5b5056fea26469706673582212204a7d0416793aef9db4282a6cadb9489fe4e300fdaf4206ba29ca40fb6e4bf6a164736f6c63430008070033",
  "immutableReferences": {},
  "source": "// SPDX-License-Identifier: MIT\r\n\r\npragma solidity ^0.8.7;\r\n\r\nstruct User {\r\n        address  payable walletaddress\t;\r\n        string name;\r\n        string lastname;\r\n        uint rentedCarId;\r\n        uint balance;\r\n        uint debt;\r\n        uint start;\r\n        uint end;\r\n}\r\n\r\nstruct Car {\r\n        uint id;\r\n        string name;\r\n        string imgUrl;\r\n        bool avaliableforRent;\r\n        uint rentFee; // for every minute\r\n        uint saleFee;\r\n}\r\n\r\ninterface UserManager {\r\n    function isUser(address payable walletAddress) external view returns (bool);\r\n    function getCars() external view returns (uint[] memory);\r\n    function getCar(uint id) external view returns (Car memory);\r\n    function addUser(address payable walletAddress, string memory name, string memory lastname) external;\r\n    function getUser(address payable walletAddress) external view returns (User memory);\r\n    function checkOut(address payable walletAddress, uint id) external;\r\n    function checkIn(address payable walletAddress) external;\r\n    function deposit(address payable walletAddress, uint amount) payable external;\r\n    function makePayment(address payable walletAddress) external;\r\n    function userDept(address payable walletAddress) external view returns (uint);\r\n    function getUserBalance(address payable walletAddress) external view returns (uint);\r\n}\r\n\r\ninterface CarManager {\r\n\tfunction addCar(uint id, string memory name, string memory url, uint rent, uint sale) external;\r\n    function setOwner(address newOwner) external;\r\n    function activateCar(uint id) external;\r\n    function deActivateCar(uint id) external;\r\n    function isCarActive(uint id) external view returns (bool);\r\n}\r\n\r\ncontract Renter {\r\n    address private owner;\r\n    //address private carManagerAddress = 0x0C6E3E42C773AdE1bAAa893f35cC9DF5d677B6CC;\r\n    //address private userManagementAddress = 0x59d83B6bA3DBD2D03CD4c2685933A35dc6D7F3d0;\r\n    address private carManagerAddress;\r\n    address private userManagerAddress;\r\n\r\n    constructor(address _carManagerAddress, address _userManagerAddress){\r\n        owner = msg.sender;\r\n        carManagerAddress = _carManagerAddress;\r\n        userManagerAddress = _userManagerAddress;\r\n    }\r\n\r\n    modifier onlyOwner() {\r\n        require(msg.sender == owner,\"Only owner required\");\r\n        _;\r\n    }\r\n\r\n    // Getter function to retrieve the owner address\r\n    function getOwner() public view returns (address) {\r\n        return owner;\r\n    }\r\n\r\n    // Setter function to change the owner address (restricted to the current owner)\r\n    function setOwner(address newOwner) public onlyOwner {\r\n        require(newOwner != address(0), \"New owner address cannot be a zero address\");\r\n        owner = newOwner;\r\n    }\r\n\r\n    // Get the current value of carManagerAddress\r\n    function getCarManagerAddress() public view returns (address) {\r\n        return carManagerAddress;\r\n    }\r\n\r\n    // Set a new value for carManagerAddress\r\n    function setCarManagerAddress(address _carManagerAddress) public onlyOwner {\r\n        carManagerAddress = _carManagerAddress;\r\n    }\r\n\r\n    // Get the current value of userManagerAddress\r\n    function getUserManagerAddress() public view returns (address) {\r\n        return userManagerAddress;\r\n    }\r\n\r\n    // Set a new value for userManagerAddress\r\n    function setUserManagerAddress(address _userManagerAddress) public onlyOwner {\r\n        userManagerAddress = _userManagerAddress;\r\n    }\r\n\r\n\r\n    function Login(address payable walletAddress) public view returns (User memory) {\r\n        require(UserManager(userManagerAddress).isUser(walletAddress), \"The user does not exist!\");\r\n        return UserManager(userManagerAddress).getUser(walletAddress);\r\n\r\n    }\r\n\r\n    function Register(address payable walletAddress, string memory name, string memory lastname) public returns (User memory) {\r\n        UserManager(userManagerAddress).addUser(walletAddress, name, lastname);\r\n        return UserManager(userManagerAddress).getUser(walletAddress);\r\n    }\r\n\r\n    function checkOut(address payable walletAddress, uint id) public {\r\n        UserManager(userManagerAddress).checkOut(walletAddress, id);\r\n    }\r\n\r\n    function checkIn(address payable walletAddress) public {\r\n        UserManager(userManagerAddress).checkIn(walletAddress);\r\n    }\r\n\r\n    function deposit(address payable walletAddress) payable public {\r\n        UserManager(userManagerAddress).deposit(walletAddress, msg.value);\r\n    }\r\n\r\n    function getUserBalance(address payable _userAddress) external view returns(uint) {\r\n        return UserManager(userManagerAddress).getUserBalance(_userAddress);\r\n    }\r\n\r\n    function makePayment(address payable walletAddress) public {\r\n        UserManager(userManagerAddress).makePayment(walletAddress);\r\n    }\r\n\r\n    function getAllCars() external view returns (uint[] memory) {\r\n        return UserManager(userManagerAddress).getCars();\r\n    }\r\n\r\n    function getCar(uint id) public view returns (Car memory) {\r\n        return UserManager(userManagerAddress).getCar(id);\r\n    }\r\n\r\n    function getUserDept(address payable _userWallet) public view returns (uint) {\r\n        return UserManager(userManagerAddress).userDept(_userWallet);\r\n    }\r\n\r\n    function addCar(uint id, string memory name, string memory url, uint rent, uint sale) public onlyOwner {\r\n    \tCarManager(carManagerAddress).addCar(id, name, url, rent, sale); \r\n    }\r\n\r\n    function setCarManagerOwner(address _owner) public onlyOwner {\r\n        CarManager(carManagerAddress).setOwner(_owner);\r\n    }\r\n\r\n    function activateCar(uint _id) public onlyOwner {\r\n        CarManager(carManagerAddress).activateCar(_id);\r\n    }\r\n\r\n    function deActivateCar(uint _id) public onlyOwner {\r\n        CarManager(carManagerAddress).deActivateCar(_id);\r\n    }\r\n\r\n    function isCarActive(uint _id) public view returns (bool) {\r\n        return CarManager(carManagerAddress).isCarActive(_id);\r\n    }\r\n}",
  "sourcePath": "C:\\Users\\arday\\OneDrive\\Masast\\coding\\blockchain\\bsc\\patika\\BNB-Course\\contracts\\bsc\\Renter.sol",
  "compiler": {
    "name": "solc",
    "version": "0.8.7+commit.e28d00a7.Emscripten.clang"
  },
  "schemaVersion": "3.4.13",
  "updatedAt": "2023-03-22T04:07:47.249Z",
  "devdoc": {
    "kind": "dev",
    "methods": {},
    "version": 1
  },
  "userdoc": {
    "kind": "user",
    "methods": {},
    "version": 1
  },
  "db": {
    "callBytecode": {
      "id": "0x6ffb84b224de1d50fc1bb11ff90909b90eddf7464f4150881be577c42fbb2a41"
    },
    "createBytecode": {
      "id": "0xf60a40b11b1c306561cdbbce7cbf40a25a005c88f84875f82f533c661439217a"
    },
    "contract": {
      "id": "0xda0504cd97a6e1623e422ab68e7806b3e1a03b2284a757311723ca1504019843"
    }
  }
}