{
  "contractName": "UserManager",
  "abi": [
    {
      "inputs": [
        {
          "internalType": "address",
          "name": "_carManagerAddress",
          "type": "address"
        }
      ],
      "stateMutability": "nonpayable",
      "type": "constructor"
    },
    {
      "inputs": [
        {
          "internalType": "address",
          "name": "",
          "type": "address"
        }
      ],
      "name": "users",
      "outputs": [
        {
          "internalType": "address payable",
          "name": "walletAddress",
          "type": "address"
        },
        {
          "internalType": "string",
          "name": "name",
          "type": "string"
        },
        {
          "internalType": "string",
          "name": "lastname",
          "type": "string"
        },
        {
          "internalType": "uint256",
          "name": "rentedCarId",
          "type": "uint256"
        },
        {
          "internalType": "uint256",
          "name": "balance",
          "type": "uint256"
        },
        {
          "internalType": "uint256",
          "name": "debt",
          "type": "uint256"
        },
        {
          "internalType": "uint256",
          "name": "start",
          "type": "uint256"
        },
        {
          "internalType": "uint256",
          "name": "end",
          "type": "uint256"
        }
      ],
      "stateMutability": "view",
      "type": "function"
    },
    {
      "inputs": [],
      "name": "getCarManagerAddress",
      "outputs": [
        {
          "internalType": "address",
          "name": "",
          "type": "address"
        }
      ],
      "stateMutability": "view",
      "type": "function"
    },
    {
      "inputs": [
        {
          "internalType": "address",
          "name": "_carManagerAddress",
          "type": "address"
        }
      ],
      "name": "setCarManagerAddress",
      "outputs": [],
      "stateMutability": "nonpayable",
      "type": "function"
    },
    {
      "inputs": [
        {
          "internalType": "address payable",
          "name": "walletAddress",
          "type": "address"
        },
        {
          "internalType": "string",
          "name": "name",
          "type": "string"
        },
        {
          "internalType": "string",
          "name": "lastname",
          "type": "string"
        }
      ],
      "name": "addUser",
      "outputs": [],
      "stateMutability": "nonpayable",
      "type": "function"
    },
    {
      "inputs": [
        {
          "internalType": "address payable",
          "name": "walletAddress",
          "type": "address"
        }
      ],
      "name": "getUser",
      "outputs": [
        {
          "components": [
            {
              "internalType": "address payable",
              "name": "walletAddress",
              "type": "address"
            },
            {
              "internalType": "string",
              "name": "name",
              "type": "string"
            },
            {
              "internalType": "string",
              "name": "lastname",
              "type": "string"
            },
            {
              "internalType": "uint256",
              "name": "rentedCarId",
              "type": "uint256"
            },
            {
              "internalType": "uint256",
              "name": "balance",
              "type": "uint256"
            },
            {
              "internalType": "uint256",
              "name": "debt",
              "type": "uint256"
            },
            {
              "internalType": "uint256",
              "name": "start",
              "type": "uint256"
            },
            {
              "internalType": "uint256",
              "name": "end",
              "type": "uint256"
            }
          ],
          "internalType": "struct User",
          "name": "",
          "type": "tuple"
        }
      ],
      "stateMutability": "view",
      "type": "function"
    },
    {
      "inputs": [
        {
          "internalType": "address payable",
          "name": "walletAddress",
          "type": "address"
        }
      ],
      "name": "getUserBalance",
      "outputs": [
        {
          "internalType": "uint256",
          "name": "",
          "type": "uint256"
        }
      ],
      "stateMutability": "view",
      "type": "function"
    },
    {
      "inputs": [
        {
          "internalType": "address payable",
          "name": "walletAddress",
          "type": "address"
        }
      ],
      "name": "userDept",
      "outputs": [
        {
          "internalType": "uint256",
          "name": "",
          "type": "uint256"
        }
      ],
      "stateMutability": "view",
      "type": "function"
    },
    {
      "inputs": [
        {
          "internalType": "address payable",
          "name": "walletAddress",
          "type": "address"
        },
        {
          "internalType": "uint256",
          "name": "id",
          "type": "uint256"
        }
      ],
      "name": "checkOut",
      "outputs": [],
      "stateMutability": "nonpayable",
      "type": "function"
    },
    {
      "inputs": [
        {
          "internalType": "address payable",
          "name": "walletAddress",
          "type": "address"
        }
      ],
      "name": "checkIn",
      "outputs": [],
      "stateMutability": "nonpayable",
      "type": "function"
    },
    {
      "inputs": [
        {
          "internalType": "address payable",
          "name": "walletAddress",
          "type": "address"
        },
        {
          "internalType": "uint256",
          "name": "amount",
          "type": "uint256"
        }
      ],
      "name": "deposit",
      "outputs": [],
      "stateMutability": "payable",
      "type": "function"
    },
    {
      "inputs": [
        {
          "internalType": "address payable",
          "name": "walletAddress",
          "type": "address"
        }
      ],
      "name": "makePayment",
      "outputs": [],
      "stateMutability": "nonpayable",
      "type": "function"
    },
    {
      "inputs": [],
      "name": "getCars",
      "outputs": [
        {
          "internalType": "uint256[]",
          "name": "",
          "type": "uint256[]"
        }
      ],
      "stateMutability": "view",
      "type": "function"
    },
    {
      "inputs": [
        {
          "internalType": "uint256",
          "name": "id",
          "type": "uint256"
        }
      ],
      "name": "getCar",
      "outputs": [
        {
          "components": [
            {
              "internalType": "uint256",
              "name": "id",
              "type": "uint256"
            },
            {
              "internalType": "string",
              "name": "name",
              "type": "string"
            },
            {
              "internalType": "string",
              "name": "imgUrl",
              "type": "string"
            },
            {
              "internalType": "bool",
              "name": "avaliableforRent",
              "type": "bool"
            },
            {
              "internalType": "uint256",
              "name": "rentFee",
              "type": "uint256"
            },
            {
              "internalType": "uint256",
              "name": "saleFee",
              "type": "uint256"
            }
          ],
          "internalType": "struct Car",
          "name": "",
          "type": "tuple"
        }
      ],
      "stateMutability": "view",
      "type": "function"
    }
  ],
  "bytecode": "0x60806040523480156200001157600080fd5b50604051620028d5380380620028d58339818101604052810190620000379190620000d6565b336000806101000a81548173ffffffffffffffffffffffffffffffffffffffff021916908373ffffffffffffffffffffffffffffffffffffffff16021790555080600160006101000a81548173ffffffffffffffffffffffffffffffffffffffff021916908373ffffffffffffffffffffffffffffffffffffffff160217905550506200015b565b600081519050620000d08162000141565b92915050565b600060208284031215620000ef57620000ee6200013c565b5b6000620000ff84828501620000bf565b91505092915050565b600062000115826200011c565b9050919050565b600073ffffffffffffffffffffffffffffffffffffffff82169050919050565b600080fd5b6200014c8162000108565b81146200015857600080fd5b50565b61276a806200016b6000396000f3fe6080604052600436106100c25760003560e01c80636f77926b1161007f578063a87430ba11610059578063a87430ba1461027f578063d7554a68146102c3578063d9a59e33146102ec578063df4799f314610315576100c2565b80636f77926b146101dc57806386aa2e421461021957806396eee63e14610256576100c2565b806317c39286146100c7578063218e6c2a146100f2578063300be4fc1461011d578063477348921461014657806347e7ef24146101835780635e8be1901461019f575b600080fd5b3480156100d357600080fd5b506100dc61033e565b6040516100e99190612020565b60405180910390f35b3480156100fe57600080fd5b506101076103ea565b6040516101149190611f79565b60405180910390f35b34801561012957600080fd5b50610144600480360381019061013f9190611a44565b610414565b005b34801561015257600080fd5b5061016d60048036038101906101689190611a44565b610646565b60405161017a9190612166565b60405180910390f35b61019d60048036038101906101989190611afc565b610692565b005b3480156101ab57600080fd5b506101c660048036038101906101c19190611bce565b6106ef565b6040516101d39190612122565b60405180910390f35b3480156101e857600080fd5b5061020360048036038101906101fe9190611a44565b6107ae565b6040516102109190612144565b60405180910390f35b34801561022557600080fd5b50610240600480360381019061023b9190611a44565b6109b4565b60405161024d9190612166565b60405180910390f35b34801561026257600080fd5b5061027d60048036038101906102789190611a17565b610b64565b005b34801561028b57600080fd5b506102a660048036038101906102a19190611a17565b610c36565b6040516102ba989796959493929190611f94565b60405180910390f35b3480156102cf57600080fd5b506102ea60048036038101906102e59190611a71565b610dae565b005b3480156102f857600080fd5b50610313600480360381019061030e9190611a44565b610efd565b005b34801561032157600080fd5b5061033c60048036038101906103379190611afc565b6111c3565b005b6060600160009054906101000a900473ffffffffffffffffffffffffffffffffffffffff1673ffffffffffffffffffffffffffffffffffffffff1663713f86726040518163ffffffff1660e01b815260040160006040518083038186803b1580156103a857600080fd5b505afa1580156103bc573d6000803e3d6000fd5b505050506040513d6000823e3d601f19601f820116820180604052508101906103e59190611b3c565b905090565b6000600160009054906101000a900473ffffffffffffffffffffffffffffffffffffffff16905090565b6000600260008373ffffffffffffffffffffffffffffffffffffffff1673ffffffffffffffffffffffffffffffffffffffff1681526020019081526020016000206005015411610499576040517f08c379a000000000000000000000000000000000000000000000000000000000815260040161049090612042565b60405180910390fd5b600260008273ffffffffffffffffffffffffffffffffffffffff1673ffffffffffffffffffffffffffffffffffffffff16815260200190815260200160002060040154600260008373ffffffffffffffffffffffffffffffffffffffff1673ffffffffffffffffffffffffffffffffffffffff168152602001908152602001600020600501541115610560576040517f08c379a0000000000000000000000000000000000000000000000000000000008152600401610557906120c2565b60405180910390fd5b600260008273ffffffffffffffffffffffffffffffffffffffff1673ffffffffffffffffffffffffffffffffffffffff16815260200190815260200160002060050154600260008373ffffffffffffffffffffffffffffffffffffffff1673ffffffffffffffffffffffffffffffffffffffff16815260200190815260200160002060040160008282546105f4919061234a565b925050819055506000600260008373ffffffffffffffffffffffffffffffffffffffff1673ffffffffffffffffffffffffffffffffffffffff1681526020019081526020016000206005018190555050565b6000600260008373ffffffffffffffffffffffffffffffffffffffff1673ffffffffffffffffffffffffffffffffffffffff168152602001908152602001600020600401549050919050565b80600260008473ffffffffffffffffffffffffffffffffffffffff1673ffffffffffffffffffffffffffffffffffffffff16815260200190815260200160002060040160008282546106e49190612269565b925050819055505050565b6106f7611622565b600160009054906101000a900473ffffffffffffffffffffffffffffffffffffffff1673ffffffffffffffffffffffffffffffffffffffff16635e8be190836040518263ffffffff1660e01b81526004016107529190612166565b60006040518083038186803b15801561076a57600080fd5b505afa15801561077e573d6000803e3d6000fd5b505050506040513d6000823e3d601f19601f820116820180604052508101906107a79190611b85565b9050919050565b6107b661165a565b600260008373ffffffffffffffffffffffffffffffffffffffff1673ffffffffffffffffffffffffffffffffffffffff168152602001908152602001600020604051806101000160405290816000820160009054906101000a900473ffffffffffffffffffffffffffffffffffffffff1673ffffffffffffffffffffffffffffffffffffffff1673ffffffffffffffffffffffffffffffffffffffff1681526020016001820180546108679061241a565b80601f01602080910402602001604051908101604052809291908181526020018280546108939061241a565b80156108e05780601f106108b5576101008083540402835291602001916108e0565b820191906000526020600020905b8154815290600101906020018083116108c357829003601f168201915b505050505081526020016002820180546108f99061241a565b80601f01602080910402602001604051908101604052809291908181526020018280546109259061241a565b80156109725780601f1061094757610100808354040283529160200191610972565b820191906000526020600020905b81548152906001019060200180831161095557829003601f168201915b50505050508152602001600382015481526020016004820154815260200160058201548152602001600682015481526020016007820154815250509050919050565b600080603c600260008573ffffffffffffffffffffffffffffffffffffffff1673ffffffffffffffffffffffffffffffffffffffff16815260200190815260200160002060060154600260008673ffffffffffffffffffffffffffffffffffffffff1673ffffffffffffffffffffffffffffffffffffffff16815260200190815260200160002060070154610a49919061234a565b610a5391906122bf565b90506000600160009054906101000a900473ffffffffffffffffffffffffffffffffffffffff1673ffffffffffffffffffffffffffffffffffffffff16635e8be190600260008773ffffffffffffffffffffffffffffffffffffffff1673ffffffffffffffffffffffffffffffffffffffff168152602001908152602001600020600301546040518263ffffffff1660e01b8152600401610af49190612166565b60006040518083038186803b158015610b0c57600080fd5b505afa158015610b20573d6000803e3d6000fd5b505050506040513d6000823e3d601f19601f82011682018060405250810190610b499190611b85565b6080015190508082610b5b91906122f0565b92505050919050565b60008054906101000a900473ffffffffffffffffffffffffffffffffffffffff1673ffffffffffffffffffffffffffffffffffffffff163373ffffffffffffffffffffffffffffffffffffffff1614610bf2576040517f08c379a0000000000000000000000000000000000000000000000000000000008152600401610be990612102565b60405180910390fd5b80600160006101000a81548173ffffffffffffffffffffffffffffffffffffffff021916908373ffffffffffffffffffffffffffffffffffffffff16021790555050565b60026020528060005260406000206000915090508060000160009054906101000a900473ffffffffffffffffffffffffffffffffffffffff1690806001018054610c7f9061241a565b80601f0160208091040260200160405190810160405280929190818152602001828054610cab9061241a565b8015610cf85780601f10610ccd57610100808354040283529160200191610cf8565b820191906000526020600020905b815481529060010190602001808311610cdb57829003601f168201915b505050505090806002018054610d0d9061241a565b80601f0160208091040260200160405190810160405280929190818152602001828054610d399061241a565b8015610d865780601f10610d5b57610100808354040283529160200191610d86565b820191906000526020600020905b815481529060010190602001808311610d6957829003601f168201915b5050505050908060030154908060040154908060050154908060060154908060070154905088565b6040518061010001604052808473ffffffffffffffffffffffffffffffffffffffff168152602001838152602001828152602001600081526020016000815260200160008152602001600081526020016000815250600260008573ffffffffffffffffffffffffffffffffffffffff1673ffffffffffffffffffffffffffffffffffffffff16815260200190815260200160002060008201518160000160006101000a81548173ffffffffffffffffffffffffffffffffffffffff021916908373ffffffffffffffffffffffffffffffffffffffff1602179055506020820151816001019080519060200190610ea59291906116b5565b506040820151816002019080519060200190610ec29291906116b5565b50606082015181600301556080820151816004015560a0820151816005015560c0820151816006015560e08201518160070155905050505050565b6000600260008373ffffffffffffffffffffffffffffffffffffffff1673ffffffffffffffffffffffffffffffffffffffff168152602001908152602001600020600301541415610f83576040517f08c379a0000000000000000000000000000000000000000000000000000000008152600401610f7a90612082565b60405180910390fd5b42600260008373ffffffffffffffffffffffffffffffffffffffff1673ffffffffffffffffffffffffffffffffffffffff16815260200190815260200160002060070181905550610fd381611472565b600260008373ffffffffffffffffffffffffffffffffffffffff1673ffffffffffffffffffffffffffffffffffffffff168152602001908152602001600020600501819055506000600260008373ffffffffffffffffffffffffffffffffffffffff1673ffffffffffffffffffffffffffffffffffffffff168152602001908152602001600020600601819055506000600260008373ffffffffffffffffffffffffffffffffffffffff1673ffffffffffffffffffffffffffffffffffffffff16815260200190815260200160002060070181905550600160009054906101000a900473ffffffffffffffffffffffffffffffffffffffff1673ffffffffffffffffffffffffffffffffffffffff1663b6263105600260008473ffffffffffffffffffffffffffffffffffffffff1673ffffffffffffffffffffffffffffffffffffffff168152602001908152602001600020600301546040518263ffffffff1660e01b81526004016111469190612166565b600060405180830381600087803b15801561116057600080fd5b505af1158015611174573d6000803e3d6000fd5b505050506000600260008373ffffffffffffffffffffffffffffffffffffffff1673ffffffffffffffffffffffffffffffffffffffff1681526020019081526020016000206003018190555050565b6000600260008473ffffffffffffffffffffffffffffffffffffffff1673ffffffffffffffffffffffffffffffffffffffff1681526020019081526020016000206004015411611248576040517f08c379a000000000000000000000000000000000000000000000000000000000815260040161123f906120a2565b60405180910390fd5b6000600260008473ffffffffffffffffffffffffffffffffffffffff1673ffffffffffffffffffffffffffffffffffffffff16815260200190815260200160002060030154146112cd576040517f08c379a00000000000000000000000000000000000000000000000000000000081526004016112c490612062565b60405180910390fd5b6000600260008473ffffffffffffffffffffffffffffffffffffffff1673ffffffffffffffffffffffffffffffffffffffff168152602001908152602001600020600501541115611353576040517f08c379a000000000000000000000000000000000000000000000000000000000815260040161134a906120e2565b60405180910390fd5b42600260008473ffffffffffffffffffffffffffffffffffffffff1673ffffffffffffffffffffffffffffffffffffffff1681526020019081526020016000206006018190555080600260008473ffffffffffffffffffffffffffffffffffffffff1673ffffffffffffffffffffffffffffffffffffffff16815260200190815260200160002060030181905550600160009054906101000a900473ffffffffffffffffffffffffffffffffffffffff1673ffffffffffffffffffffffffffffffffffffffff16634505ca99826040518263ffffffff1660e01b815260040161143c9190612166565b600060405180830381600087803b15801561145657600080fd5b505af115801561146a573d6000803e3d6000fd5b505050505050565b600080603c600260008573ffffffffffffffffffffffffffffffffffffffff1673ffffffffffffffffffffffffffffffffffffffff16815260200190815260200160002060060154600260008673ffffffffffffffffffffffffffffffffffffffff1673ffffffffffffffffffffffffffffffffffffffff16815260200190815260200160002060070154611507919061234a565b61151191906122bf565b90506000600160009054906101000a900473ffffffffffffffffffffffffffffffffffffffff1673ffffffffffffffffffffffffffffffffffffffff16635e8be190600260008773ffffffffffffffffffffffffffffffffffffffff1673ffffffffffffffffffffffffffffffffffffffff168152602001908152602001600020600301546040518263ffffffff1660e01b81526004016115b29190612166565b60006040518083038186803b1580156115ca57600080fd5b505afa1580156115de573d6000803e3d6000fd5b505050506040513d6000823e3d601f19601f820116820180604052508101906116079190611b85565b608001519050808261161991906122f0565b92505050919050565b6040518060c0016040528060008152602001606081526020016060815260200160001515815260200160008152602001600081525090565b604051806101000160405280600073ffffffffffffffffffffffffffffffffffffffff168152602001606081526020016060815260200160008152602001600081526020016000815260200160008152602001600081525090565b8280546116c19061241a565b90600052602060002090601f0160209004810192826116e3576000855561172a565b82601f106116fc57805160ff191683800117855561172a565b8280016001018555821561172a579182015b8281111561172957825182559160200191906001019061170e565b5b509050611737919061173b565b5090565b5b8082111561175457600081600090555060010161173c565b5090565b600061176b611766846121a6565b612181565b9050808382526020820190508285602086028201111561178e5761178d612548565b5b60005b858110156117be57816117a48882611a02565b845260208401935060208301925050600181019050611791565b5050509392505050565b60006117db6117d6846121d2565b612181565b9050828152602081018484840111156117f7576117f661254d565b5b6118028482856123d8565b509392505050565b600061181d611818846121d2565b612181565b9050828152602081018484840111156118395761183861254d565b5b6118448482856123e7565b509392505050565b60008135905061185b816126d8565b92915050565b600081359050611870816126ef565b92915050565b600082601f83011261188b5761188a612539565b5b815161189b848260208601611758565b91505092915050565b6000815190506118b381612706565b92915050565b600082601f8301126118ce576118cd612539565b5b81356118de8482602086016117c8565b91505092915050565b600082601f8301126118fc576118fb612539565b5b815161190c84826020860161180a565b91505092915050565b600060c0828403121561192b5761192a61253e565b5b61193560c0612181565b9050600061194584828501611a02565b600083015250602082015167ffffffffffffffff81111561196957611968612543565b5b611975848285016118e7565b602083015250604082015167ffffffffffffffff81111561199957611998612543565b5b6119a5848285016118e7565b60408301525060606119b9848285016118a4565b60608301525060806119cd84828501611a02565b60808301525060a06119e184828501611a02565b60a08301525092915050565b6000813590506119fc8161271d565b92915050565b600081519050611a118161271d565b92915050565b600060208284031215611a2d57611a2c612557565b5b6000611a3b8482850161184c565b91505092915050565b600060208284031215611a5a57611a59612557565b5b6000611a6884828501611861565b91505092915050565b600080600060608486031215611a8a57611a89612557565b5b6000611a9886828701611861565b935050602084013567ffffffffffffffff811115611ab957611ab8612552565b5b611ac5868287016118b9565b925050604084013567ffffffffffffffff811115611ae657611ae5612552565b5b611af2868287016118b9565b9150509250925092565b60008060408385031215611b1357611b12612557565b5b6000611b2185828601611861565b9250506020611b32858286016119ed565b9150509250929050565b600060208284031215611b5257611b51612557565b5b600082015167ffffffffffffffff811115611b7057611b6f612552565b5b611b7c84828501611876565b91505092915050565b600060208284031215611b9b57611b9a612557565b5b600082015167ffffffffffffffff811115611bb957611bb8612552565b5b611bc584828501611915565b91505092915050565b600060208284031215611be457611be3612557565b5b6000611bf2848285016119ed565b91505092915050565b6000611c078383611f5b565b60208301905092915050565b611c1c81612390565b82525050565b611c2b81612390565b82525050565b611c3a8161237e565b82525050565b6000611c4b82612213565b611c558185612236565b9350611c6083612203565b8060005b83811015611c91578151611c788882611bfb565b9750611c8383612229565b925050600181019050611c64565b5085935050505092915050565b611ca7816123a2565b82525050565b6000611cb88261221e565b611cc28185612247565b9350611cd28185602086016123e7565b611cdb8161255c565b840191505092915050565b6000611cf18261221e565b611cfb8185612258565b9350611d0b8185602086016123e7565b611d148161255c565b840191505092915050565b6000611d2c601583612258565b9150611d378261256d565b602082019050919050565b6000611d4f602c83612258565b9150611d5a82612596565b604082019050919050565b6000611d72602583612258565b9150611d7d826125e5565b604082019050919050565b6000611d95601883612258565b9150611da082612634565b602082019050919050565b6000611db8601f83612258565b9150611dc38261265d565b602082019050919050565b6000611ddb601283612258565b9150611de682612686565b602082019050919050565b6000611dfe601383612258565b9150611e09826126af565b602082019050919050565b600060c083016000830151611e2c6000860182611f5b565b5060208301518482036020860152611e448282611cad565b91505060408301518482036040860152611e5e8282611cad565b9150506060830151611e736060860182611c9e565b506080830151611e866080860182611f5b565b5060a0830151611e9960a0860182611f5b565b508091505092915050565b600061010083016000830151611ebd6000860182611c13565b5060208301518482036020860152611ed58282611cad565b91505060408301518482036040860152611eef8282611cad565b9150506060830151611f046060860182611f5b565b506080830151611f176080860182611f5b565b5060a0830151611f2a60a0860182611f5b565b5060c0830151611f3d60c0860182611f5b565b5060e0830151611f5060e0860182611f5b565b508091505092915050565b611f64816123ce565b82525050565b611f73816123ce565b82525050565b6000602082019050611f8e6000830184611c31565b92915050565b600061010082019050611faa600083018b611c22565b8181036020830152611fbc818a611ce6565b90508181036040830152611fd08189611ce6565b9050611fdf6060830188611f6a565b611fec6080830187611f6a565b611ff960a0830186611f6a565b61200660c0830185611f6a565b61201360e0830184611f6a565b9998505050505050505050565b6000602082019050818103600083015261203a8184611c40565b905092915050565b6000602082019050818103600083015261205b81611d1f565b9050919050565b6000602082019050818103600083015261207b81611d42565b9050919050565b6000602082019050818103600083015261209b81611d65565b9050919050565b600060208201905081810360008301526120bb81611d88565b9050919050565b600060208201905081810360008301526120db81611dab565b9050919050565b600060208201905081810360008301526120fb81611dce565b9050919050565b6000602082019050818103600083015261211b81611df1565b9050919050565b6000602082019050818103600083015261213c8184611e14565b905092915050565b6000602082019050818103600083015261215e8184611ea4565b905092915050565b600060208201905061217b6000830184611f6a565b92915050565b600061218b61219c565b9050612197828261244c565b919050565b6000604051905090565b600067ffffffffffffffff8211156121c1576121c061250a565b5b602082029050602081019050919050565b600067ffffffffffffffff8211156121ed576121ec61250a565b5b6121f68261255c565b9050602081019050919050565b6000819050602082019050919050565b600081519050919050565b600081519050919050565b6000602082019050919050565b600082825260208201905092915050565b600082825260208201905092915050565b600082825260208201905092915050565b6000612274826123ce565b915061227f836123ce565b9250827fffffffffffffffffffffffffffffffffffffffffffffffffffffffffffffffff038211156122b4576122b361247d565b5b828201905092915050565b60006122ca826123ce565b91506122d5836123ce565b9250826122e5576122e46124ac565b5b828204905092915050565b60006122fb826123ce565b9150612306836123ce565b9250817fffffffffffffffffffffffffffffffffffffffffffffffffffffffffffffffff048311821515161561233f5761233e61247d565b5b828202905092915050565b6000612355826123ce565b9150612360836123ce565b9250828210156123735761237261247d565b5b828203905092915050565b6000612389826123ae565b9050919050565b600061239b826123ae565b9050919050565b60008115159050919050565b600073ffffffffffffffffffffffffffffffffffffffff82169050919050565b6000819050919050565b82818337600083830152505050565b60005b838110156124055780820151818401526020810190506123ea565b83811115612414576000848401525b50505050565b6000600282049050600182168061243257607f821691505b60208210811415612446576124456124db565b5b50919050565b6124558261255c565b810181811067ffffffffffffffff821117156124745761247361250a565b5b80604052505050565b7f4e487b7100000000000000000000000000000000000000000000000000000000600052601160045260246000fd5b7f4e487b7100000000000000000000000000000000000000000000000000000000600052601260045260246000fd5b7f4e487b7100000000000000000000000000000000000000000000000000000000600052602260045260246000fd5b7f4e487b7100000000000000000000000000000000000000000000000000000000600052604160045260246000fd5b600080fd5b600080fd5b600080fd5b600080fd5b600080fd5b600080fd5b600080fd5b6000601f19601f8301169050919050565b7f546865207573657220686173206e6f2064656274210000000000000000000000600082015250565b7f546865726520697320616c726561647920612072656e7465642063617220666f60008201527f7220746869732075736572210000000000000000000000000000000000000000602082015250565b7f5468657265206973206e6f2072656e7465642063617220666f7220746869732060008201527f7573657221000000000000000000000000000000000000000000000000000000602082015250565b7f546865207573657220686173206e6f2062616c616e6365210000000000000000600082015250565b7f546865207573657220686173206e6f206372656164697420746f207061792100600082015250565b7f5468652075736572206861732064656274210000000000000000000000000000600082015250565b7f4f6e6c79206f776e657220726571756972656400000000000000000000000000600082015250565b6126e18161237e565b81146126ec57600080fd5b50565b6126f881612390565b811461270357600080fd5b50565b61270f816123a2565b811461271a57600080fd5b50565b612726816123ce565b811461273157600080fd5b5056fea2646970667358221220564f37706569e7008b120063daebcaf5c72b0d06944a1c1aa26ff1192e040bfd64736f6c63430008070033",
  "immutableReferences": {},
  "source": "// SPDX-License-Identifier: MIT\r\n\r\npragma solidity ^0.8.7;\r\n\r\nstruct Car {\r\n        uint id;\r\n        string name;\r\n        string imgUrl;\r\n        bool avaliableforRent;\r\n        uint rentFee;\r\n        uint saleFee;\r\n}\r\n\r\nstruct User {\r\n        address payable walletAddress;\r\n        string name;\r\n        string lastname;\r\n        uint rentedCarId;\r\n        uint balance;\r\n        uint debt;\r\n        uint start;\r\n        uint end;\r\n}\r\n\r\ninterface CarManager {\r\n    function checkOutCar(uint id) external;\r\n    function getCar(uint id) external view returns (Car memory);\r\n    function checkInCar(uint id) external;\r\n    function getCarIds() external view returns (uint[] memory);\r\n}\r\n\r\ncontract UserManager {\r\n    address private owner;\r\n    // address private carManagerAddress = 0x0C6E3E42C773AdE1bAAa893f35cC9DF5d677B6CC;\r\n    address private carManagerAddress;\r\n\r\n    mapping(address => User) public users;\r\n\r\n    constructor(address _carManagerAddress) {\r\n        owner = msg.sender;\r\n        carManagerAddress = _carManagerAddress;\r\n    }\r\n\r\n    modifier onlyOwner() {\r\n        require(msg.sender == owner,\"Only owner required\");\r\n        _;\r\n    }\r\n\r\n    // Getter function for carManagerAddress\r\n    function getCarManagerAddress() public view returns (address) {\r\n        return carManagerAddress;\r\n    }\r\n\r\n    // Setter function for carManagerAddress\r\n    function setCarManagerAddress(address _carManagerAddress) public onlyOwner {\r\n        carManagerAddress = _carManagerAddress;\r\n    }\r\n\r\n    function addUser(address payable walletAddress,string memory name, string memory lastname) external {\r\n        users[walletAddress] = User(walletAddress, name, lastname, 0, 0, 0, 0, 0);\r\n     \r\n    }\r\n\r\n    function getUser(address payable walletAddress) external view returns (User memory) {\r\n        return users[walletAddress];\r\n    }\r\n\r\n    function getUserBalance(address payable walletAddress) external view returns (uint) {\r\n        return users[walletAddress].balance;\r\n    }\r\n\r\n    function calculateDebt(address payable walletAddress) internal view returns (uint) {\r\n        uint usedMinutes = (users[walletAddress].end - users[walletAddress].start) / 60;\r\n        uint fee = CarManager(carManagerAddress).getCar(users[walletAddress].rentedCarId).rentFee;\r\n\r\n        return usedMinutes * fee;\r\n    }\r\n\r\n    // For external use\r\n    function userDept(address payable walletAddress) external view returns (uint) {\r\n        uint usedMinutes = (users[walletAddress].end - users[walletAddress].start) / 60;\r\n        uint fee = CarManager(carManagerAddress).getCar(users[walletAddress].rentedCarId).rentFee;\r\n\r\n        return usedMinutes * fee;\r\n    }\r\n\r\n    function checkOut(address payable walletAddress, uint id) external {\r\n        require(users[walletAddress].balance > 0, \"The user has no balance!\");\r\n        require(users[walletAddress].rentedCarId == 0, \"There is already a rented car for this user!\");\r\n        require(users[walletAddress].debt <= 0, \"The user has debt!\");\r\n        users[walletAddress].start = block.timestamp;\r\n        users[walletAddress].rentedCarId = id;\r\n        CarManager(carManagerAddress).checkOutCar(id);\r\n    }\r\n\r\n    function checkIn(address payable walletAddress) external {\r\n        require(users[walletAddress].rentedCarId != 0, \"There is no rented car for this user!\");\r\n        users[walletAddress].end = block.timestamp;\r\n        users[walletAddress].debt = calculateDebt(walletAddress);\r\n        users[walletAddress].start = 0;\r\n        users[walletAddress].end = 0;\r\n        CarManager(carManagerAddress).checkInCar(users[walletAddress].rentedCarId);\r\n        users[walletAddress].rentedCarId = 0;\r\n\r\n    }\r\n\r\n    function deposit(address payable walletAddress, uint amount) payable external {\r\n        users[walletAddress].balance += amount;\r\n    }\r\n\r\n    function makePayment(address payable walletAddress) external {\r\n        require(users[walletAddress].debt > 0, \"The user has no debt!\");\r\n        require(users[walletAddress].debt <= users[walletAddress].balance, \"The user has no creadit to pay!\");\r\n        users[walletAddress].balance -= users[walletAddress].debt;\r\n        users[walletAddress].debt = 0;\r\n    }\r\n\r\n    function getCars() external view returns (uint[] memory) {\r\n        return CarManager(carManagerAddress).getCarIds();\r\n    }\r\n\r\n    function getCar(uint id) external view returns (Car memory) {\r\n        return CarManager(carManagerAddress).getCar(id);\r\n    }\r\n}",
  "sourcePath": "C:\\Users\\arday\\OneDrive\\Masast\\coding\\blockchain\\bsc\\patika\\BNB-Course\\contracts\\bsc\\UserManager.sol",
  "compiler": {
    "name": "solc",
    "version": "0.8.7+commit.e28d00a7.Emscripten.clang"
  },
  "schemaVersion": "3.4.13",
  "updatedAt": "2023-03-22T04:07:47.260Z",
  "devdoc": {
    "kind": "dev",
    "methods": {},
    "version": 1
  },
  "userdoc": {
    "kind": "user",
    "methods": {},
    "version": 1
  },
  "db": {
    "callBytecode": {
      "id": "0x8ed573ae039be7668d21dc10a82e88e1eea7f314b5193cbb848273e11d31fcda"
    },
    "createBytecode": {
      "id": "0xfd97b87012bc9ed87b264a6e8060e7d9c45f636f1404d86ad1f3d3f5ef2d1d1d"
    },
    "contract": {
      "id": "0x6edd1b53589493d2ed36fa46bf8ff3dd030235fba232476007e284313f4f8626"
    }
  }
}